{
  "contractName": "SimpleStorage",
  "abi": [
    {
      "constant": false,
      "inputs": [
        {
          "name": "x",
          "type": "uint256"
        }
      ],
      "name": "set",
      "outputs": [],
      "payable": false,
      "stateMutability": "nonpayable",
      "type": "function"
    },
    {
      "constant": true,
      "inputs": [],
      "name": "get",
      "outputs": [
        {
          "name": "",
          "type": "uint256"
        }
      ],
      "payable": false,
      "stateMutability": "view",
      "type": "function"
    },
    {
      "constant": false,
      "inputs": [
        {
          "name": "editor",
          "type": "address"
        }
      ],
      "name": "logEditor",
      "outputs": [],
      "payable": false,
      "stateMutability": "nonpayable",
      "type": "function"
    },
    {
      "constant": true,
      "inputs": [],
      "name": "getLatestEditor",
      "outputs": [
        {
          "name": "",
          "type": "address"
        }
      ],
      "payable": false,
      "stateMutability": "view",
      "type": "function"
    }
  ],
  "bytecode": "0x608060405234801561001057600080fd5b5061020f806100206000396000f300608060405260043610610062576000357c0100000000000000000000000000000000000000000000000000000000900463ffffffff1680632d29cdb91461006757806360fe47b1146100aa5780636d4ce63c146100d757806386247c6114610102575b600080fd5b34801561007357600080fd5b506100a8600480360381019080803573ffffffffffffffffffffffffffffffffffffffff169060200190929190505050610159565b005b3480156100b657600080fd5b506100d56004803603810190808035906020019092919050505061019d565b005b3480156100e357600080fd5b506100ec6101b0565b6040518082815260200191505060405180910390f35b34801561010e57600080fd5b506101176101b9565b604051808273ffffffffffffffffffffffffffffffffffffffff1673ffffffffffffffffffffffffffffffffffffffff16815260200191505060405180910390f35b80600160006101000a81548173ffffffffffffffffffffffffffffffffffffffff021916908373ffffffffffffffffffffffffffffffffffffffff16021790555050565b806000819055506101ad33610159565b50565b60008054905090565b6000600160009054906101000a900473ffffffffffffffffffffffffffffffffffffffff169050905600a165627a7a72305820f09bcd1ff4288c55f35fcbf1b9ea4cf59739e929cb8ec2ac5f7bc0c543a0b4e10029",
  "source": "pragma solidity ^ 0.4 .25;\r\n\r\ncontract SimpleStorage {\r\n    uint storedData;\r\n    address latestEditor;\r\n\r\n    function set(uint x) public {\r\n        storedData = x;\r\n        logEditor(msg.sender);\r\n    }\r\n\r\n    function get() public constant returns(uint) {\r\n        return storedData;\r\n    }\r\n\r\n    function logEditor(address editor) public { \r\n        latestEditor = editor;\r\n    }\r\n\r\n    function getLatestEditor() public constant returns(address) { \r\n        return latestEditor;\r\n    } \r\n}",
  "sourcePath": "C:/Users/victo/Documents/code/smart-contract/SimpleStorage/contracts/SimpleStorage.sol",
  "compiler": {
    "name": "solc",
    "version": "0.4.25+commit.59dbf8f1.Emscripten.clang"
  },
  "schemaVersion": "3.0.18",
  "updatedAt": "2019-11-13T08:34:38.028Z",
  "networkType": "ethereum",
  "devdoc": {
    "methods": {}
  },
  "userdoc": {
    "methods": {}
  }
}