{
  "contractName": "Acution",
  "abi": [
    {
      "constant": true,
      "inputs": [
        {
          "name": "",
          "type": "address"
        }
      ],
      "name": "userBalances",
      "outputs": [
        {
          "name": "",
          "type": "uint256"
        }
      ],
      "payable": false,
      "stateMutability": "view",
      "type": "function"
    },
    {
      "constant": true,
      "inputs": [],
      "name": "highestBidder",
      "outputs": [
        {
          "name": "",
          "type": "address"
        }
      ],
      "payable": false,
      "stateMutability": "view",
      "type": "function"
    },
    {
      "constant": true,
      "inputs": [],
      "name": "highestBid",
      "outputs": [
        {
          "name": "",
          "type": "uint256"
        }
      ],
      "payable": false,
      "stateMutability": "view",
      "type": "function"
    },
    {
      "inputs": [],
      "payable": false,
      "stateMutability": "nonpayable",
      "type": "constructor"
    },
    {
      "constant": false,
      "inputs": [],
      "name": "bid",
      "outputs": [],
      "payable": false,
      "stateMutability": "nonpayable",
      "type": "function"
    },
    {
      "constant": false,
      "inputs": [],
      "name": "withdraw",
      "outputs": [],
      "payable": false,
      "stateMutability": "nonpayable",
      "type": "function"
    }
  ],
  "bytecode": "0x608060405234801561001057600080fd5b506000600181905550336000806101000a81548173ffffffffffffffffffffffffffffffffffffffff021916908373ffffffffffffffffffffffffffffffffffffffff1602179055506102bc806100686000396000f30060806040526004361061006d576000357c0100000000000000000000000000000000000000000000000000000000900463ffffffff1680631998aeef1461007257806326224c64146100895780633ccfd60b146100e057806391f90157146100f7578063d57bde791461014e575b600080fd5b34801561007e57600080fd5b50610087610179565b005b34801561009557600080fd5b506100ca600480360381019080803573ffffffffffffffffffffffffffffffffffffffff1690602001909291905050506101d5565b6040518082815260200191505060405180910390f35b3480156100ec57600080fd5b506100f56101ed565b005b34801561010357600080fd5b5061010c610265565b604051808273ffffffffffffffffffffffffffffffffffffffff1673ffffffffffffffffffffffffffffffffffffffff16815260200191505060405180910390f35b34801561015a57600080fd5b5061016361028a565b6040518082815260200191505060405180910390f35b6001543411156101d35761018b6101ed565b34600181905550336000806101000a81548173ffffffffffffffffffffffffffffffffffffffff021916908373ffffffffffffffffffffffffffffffffffffffff1602179055505b565b60026020528060005260406000206000915090505481565b60006001541115610263576000809054906101000a900473ffffffffffffffffffffffffffffffffffffffff1673ffffffffffffffffffffffffffffffffffffffff166108fc6001549081150290604051600060405180830381858888f19350505050158015610261573d6000803e3d6000fd5b505b565b6000809054906101000a900473ffffffffffffffffffffffffffffffffffffffff1681565b600154815600a165627a7a7230582001bbd59eadd1b930610b1b3a6da62aab2a34183a31ff559af5b336c8a95e7fd60029",
  "source": "pragma solidity ^0.4.25; \r\n \r\ncontract Acution {     \r\n    address public highestBidder; // The highest bidder's address\r\n    uint public highestBid; // The amount of the highest bid\r\n    mapping(address => uint) public userBalances;  // mapping for the amount to return \r\n \r\n    constructor() public {  \r\n        // contractor  \r\n        // 1. Initialize highest bid and the bidder's address\r\n        highestBid = 0;\r\n        highestBidder = msg.sender;     \r\n        } \r\n \r\n    function bid() public {  \r\n        // Funtion to process bid  \r\n        // 1. Check if the bid is greater than the current highest bid  \r\n        // 2. Update status variable and the amount to return \r\n        if(msg.value > highestBid) { \r\n            withdraw();\r\n            highestBid = msg.value;\r\n            highestBidder = msg.sender;\r\n    \r\n            }    \r\n        }          \r\n        \r\n    function withdraw() public {         \r\n        // Fundtion to withdraw the amount of bid to return  \r\n        // 1. Check if the amount to return is greater than zero  \r\n        // 2. Update status variablle and return bid \r\n        if(highestBid > 0) { \r\n            highestBidder.transfer(highestBid);\r\n        }\r\n\r\n        } \r\n} ",
  "sourcePath": "C:/Users/victo/Documents/code/smart-contract/Auction/contracts/Auction.sol",
  "compiler": {
    "name": "solc",
    "version": "0.4.25+commit.59dbf8f1.Emscripten.clang"
  },
  "schemaVersion": "3.0.18",
  "updatedAt": "2019-11-10T14:32:07.480Z",
  "devdoc": {
    "methods": {}
  },
  "userdoc": {
    "methods": {}
  }
}