{
  "contractName": "Auction",
  "abi": [
    {
      "constant": true,
      "inputs": [
        {
          "name": "",
          "type": "address"
        }
      ],
      "name": "userBalances",
      "outputs": [
        {
          "name": "",
          "type": "uint256"
        }
      ],
      "payable": false,
      "stateMutability": "view",
      "type": "function"
    },
    {
      "constant": true,
      "inputs": [],
      "name": "highestBidder",
      "outputs": [
        {
          "name": "",
          "type": "address"
        }
      ],
      "payable": false,
      "stateMutability": "view",
      "type": "function"
    },
    {
      "constant": true,
      "inputs": [],
      "name": "highestBid",
      "outputs": [
        {
          "name": "",
          "type": "uint256"
        }
      ],
      "payable": false,
      "stateMutability": "view",
      "type": "function"
    },
    {
      "inputs": [],
      "payable": false,
      "stateMutability": "nonpayable",
      "type": "constructor"
    },
    {
      "constant": false,
      "inputs": [],
      "name": "bid",
      "outputs": [],
      "payable": true,
      "stateMutability": "payable",
      "type": "function"
    },
    {
      "constant": false,
      "inputs": [],
      "name": "withdraw",
      "outputs": [],
      "payable": false,
      "stateMutability": "nonpayable",
      "type": "function"
    },
    {
      "constant": true,
      "inputs": [],
      "name": "getHighestBid",
      "outputs": [
        {
          "name": "",
          "type": "uint256"
        }
      ],
      "payable": false,
      "stateMutability": "view",
      "type": "function"
    },
    {
      "constant": true,
      "inputs": [],
      "name": "getHighestBidder",
      "outputs": [
        {
          "name": "",
          "type": "address"
        }
      ],
      "payable": false,
      "stateMutability": "view",
      "type": "function"
    }
  ],
  "bytecode": "0x608060405234801561001057600080fd5b506000600181905550336000806101000a81548173ffffffffffffffffffffffffffffffffffffffff021916908373ffffffffffffffffffffffffffffffffffffffff160217905550610379806100686000396000f300608060405260043610610082576000357c0100000000000000000000000000000000000000000000000000000000900463ffffffff1680623495a4146100875780631998aeef146100de57806326224c64146100e85780633ccfd60b1461013f5780634979440a1461015657806391f9015714610181578063d57bde79146101d8575b600080fd5b34801561009357600080fd5b5061009c610203565b604051808273ffffffffffffffffffffffffffffffffffffffff1673ffffffffffffffffffffffffffffffffffffffff16815260200191505060405180910390f35b6100e661022c565b005b3480156100f457600080fd5b50610129600480360381019080803573ffffffffffffffffffffffffffffffffffffffff169060200190929190505050610288565b6040518082815260200191505060405180910390f35b34801561014b57600080fd5b506101546102a0565b005b34801561016257600080fd5b5061016b610318565b6040518082815260200191505060405180910390f35b34801561018d57600080fd5b50610196610322565b604051808273ffffffffffffffffffffffffffffffffffffffff1673ffffffffffffffffffffffffffffffffffffffff16815260200191505060405180910390f35b3480156101e457600080fd5b506101ed610347565b6040518082815260200191505060405180910390f35b60008060009054906101000a900473ffffffffffffffffffffffffffffffffffffffff16905090565b6001543411156102865761023e6102a0565b34600181905550336000806101000a81548173ffffffffffffffffffffffffffffffffffffffff021916908373ffffffffffffffffffffffffffffffffffffffff1602179055505b565b60026020528060005260406000206000915090505481565b60006001541115610316576000809054906101000a900473ffffffffffffffffffffffffffffffffffffffff1673ffffffffffffffffffffffffffffffffffffffff166108fc6001549081150290604051600060405180830381858888f19350505050158015610314573d6000803e3d6000fd5b505b565b6000600154905090565b6000809054906101000a900473ffffffffffffffffffffffffffffffffffffffff1681565b600154815600a165627a7a72305820787e835cef73dc101b635ee20bb6944e22adfc8d55a2f1485e817cda01eaee050029",
  "source": "pragma solidity ^0.4.25; \r\n \r\ncontract Auction {     \r\n    address public highestBidder; // The highest bidder's address\r\n    uint public highestBid; // The amount of the highest bid\r\n    mapping(address => uint) public userBalances;  // mapping for the amount to return \r\n \r\n    constructor() public {  \r\n        // contractor  \r\n        // 1. Initialize highest bid and the bidder's address\r\n        highestBid = 0;\r\n        highestBidder = msg.sender;     \r\n        } \r\n \r\n    function bid() public payable {  \r\n        // Funtion to process bid  \r\n        // 1. Check if the bid is greater than the current highest bid  \r\n        // 2. Update status variable and the amount to return \r\n        if(msg.value > highestBid) { \r\n            withdraw();\r\n            highestBid = msg.value;\r\n            highestBidder = msg.sender;\r\n    \r\n            }    \r\n        }     \r\n        \r\n    function withdraw() public {         \r\n        // Fundtion to withdraw the amount of bid to return  \r\n        // 1. Check if the amount to return is greater than zero  \r\n        // 2. Update status variablle and return bid \r\n        if(highestBid > 0) { \r\n            highestBidder.transfer(highestBid);\r\n        }\r\n\r\n        } \r\n\r\n    function getHighestBid() public constant returns(uint) { \r\n        return highestBid;\r\n    }\r\n\r\n    function getHighestBidder() public constant returns(address) { \r\n        return highestBidder;\r\n    }  \r\n} ",
  "sourcePath": "C:/Users/victo/Documents/code/smart-contract/Auction/contracts/Auction.sol",
  "compiler": {
    "name": "solc",
    "version": "0.4.25+commit.59dbf8f1.Emscripten.clang"
  },
  "schemaVersion": "3.0.18",
  "updatedAt": "2019-11-13T11:01:20.929Z",
  "networkType": "ethereum",
  "devdoc": {
    "methods": {}
  },
  "userdoc": {
    "methods": {}
  }
}